{
  "abi": [
    {
      "inputs": [
        {
          "internalType": "contract IVotes",
          "name": "_token",
          "type": "address"
        }
      ],
      "stateMutability": "nonpayable",
      "type": "constructor"
    },
    {
      "inputs": [],
      "name": "Empty",
      "type": "error"
    },
    {
      "anonymous": false,
      "inputs": [
        {
          "indexed": false,
          "internalType": "uint256",
          "name": "proposalId",
          "type": "uint256"
        }
      ],
      "name": "ProposalCanceled",
      "type": "event"
    },
    {
      "anonymous": false,
      "inputs": [
        {
          "indexed": false,
          "internalType": "uint256",
          "name": "proposalId",
          "type": "uint256"
        },
        {
          "indexed": false,
          "internalType": "address",
          "name": "proposer",
          "type": "address"
        },
        {
          "indexed": false,
          "internalType": "address[]",
          "name": "targets",
          "type": "address[]"
        },
        {
          "indexed": false,
          "internalType": "uint256[]",
          "name": "values",
          "type": "uint256[]"
        },
        {
          "indexed": false,
          "internalType": "string[]",
          "name": "signatures",
          "type": "string[]"
        },
        {
          "indexed": false,
          "internalType": "bytes[]",
          "name": "calldatas",
          "type": "bytes[]"
        },
        {
          "indexed": false,
          "internalType": "uint256",
          "name": "startBlock",
          "type": "uint256"
        },
        {
          "indexed": false,
          "internalType": "uint256",
          "name": "endBlock",
          "type": "uint256"
        },
        {
          "indexed": false,
          "internalType": "string",
          "name": "description",
          "type": "string"
        }
      ],
      "name": "ProposalCreated",
      "type": "event"
    },
    {
      "anonymous": false,
      "inputs": [
        {
          "indexed": false,
          "internalType": "uint256",
          "name": "proposalId",
          "type": "uint256"
        }
      ],
      "name": "ProposalExecuted",
      "type": "event"
    },
    {
      "anonymous": false,
      "inputs": [
        {
          "indexed": false,
          "internalType": "uint256",
          "name": "oldQuorumNumerator",
          "type": "uint256"
        },
        {
          "indexed": false,
          "internalType": "uint256",
          "name": "newQuorumNumerator",
          "type": "uint256"
        }
      ],
      "name": "QuorumNumeratorUpdated",
      "type": "event"
    },
    {
      "anonymous": false,
      "inputs": [
        {
          "indexed": true,
          "internalType": "address",
          "name": "voter",
          "type": "address"
        },
        {
          "indexed": false,
          "internalType": "uint256",
          "name": "proposalId",
          "type": "uint256"
        },
        {
          "indexed": false,
          "internalType": "uint8",
          "name": "support",
          "type": "uint8"
        },
        {
          "indexed": false,
          "internalType": "uint256",
          "name": "weight",
          "type": "uint256"
        },
        {
          "indexed": false,
          "internalType": "string",
          "name": "reason",
          "type": "string"
        }
      ],
      "name": "VoteCast",
      "type": "event"
    },
    {
      "anonymous": false,
      "inputs": [
        {
          "indexed": true,
          "internalType": "address",
          "name": "voter",
          "type": "address"
        },
        {
          "indexed": false,
          "internalType": "uint256",
          "name": "proposalId",
          "type": "uint256"
        },
        {
          "indexed": false,
          "internalType": "uint8",
          "name": "support",
          "type": "uint8"
        },
        {
          "indexed": false,
          "internalType": "uint256",
          "name": "weight",
          "type": "uint256"
        },
        {
          "indexed": false,
          "internalType": "string",
          "name": "reason",
          "type": "string"
        },
        {
          "indexed": false,
          "internalType": "bytes",
          "name": "params",
          "type": "bytes"
        }
      ],
      "name": "VoteCastWithParams",
      "type": "event"
    },
    {
      "inputs": [],
      "name": "BALLOT_TYPEHASH",
      "outputs": [
        {
          "internalType": "bytes32",
          "name": "",
          "type": "bytes32"
        }
      ],
      "stateMutability": "view",
      "type": "function"
    },
    {
      "inputs": [],
      "name": "COUNTING_MODE",
      "outputs": [
        {
          "internalType": "string",
          "name": "",
          "type": "string"
        }
      ],
      "stateMutability": "pure",
      "type": "function"
    },
    {
      "inputs": [],
      "name": "EXTENDED_BALLOT_TYPEHASH",
      "outputs": [
        {
          "internalType": "bytes32",
          "name": "",
          "type": "bytes32"
        }
      ],
      "stateMutability": "view",
      "type": "function"
    },
    {
      "inputs": [
        {
          "internalType": "uint256",
          "name": "proposalId",
          "type": "uint256"
        },
        {
          "internalType": "uint8",
          "name": "support",
          "type": "uint8"
        }
      ],
      "name": "castVote",
      "outputs": [
        {
          "internalType": "uint256",
          "name": "",
          "type": "uint256"
        }
      ],
      "stateMutability": "nonpayable",
      "type": "function"
    },
    {
      "inputs": [
        {
          "internalType": "uint256",
          "name": "proposalId",
          "type": "uint256"
        },
        {
          "internalType": "uint8",
          "name": "support",
          "type": "uint8"
        },
        {
          "internalType": "uint8",
          "name": "v",
          "type": "uint8"
        },
        {
          "internalType": "bytes32",
          "name": "r",
          "type": "bytes32"
        },
        {
          "internalType": "bytes32",
          "name": "s",
          "type": "bytes32"
        }
      ],
      "name": "castVoteBySig",
      "outputs": [
        {
          "internalType": "uint256",
          "name": "",
          "type": "uint256"
        }
      ],
      "stateMutability": "nonpayable",
      "type": "function"
    },
    {
      "inputs": [
        {
          "internalType": "uint256",
          "name": "proposalId",
          "type": "uint256"
        },
        {
          "internalType": "uint8",
          "name": "support",
          "type": "uint8"
        },
        {
          "internalType": "string",
          "name": "reason",
          "type": "string"
        }
      ],
      "name": "castVoteWithReason",
      "outputs": [
        {
          "internalType": "uint256",
          "name": "",
          "type": "uint256"
        }
      ],
      "stateMutability": "nonpayable",
      "type": "function"
    },
    {
      "inputs": [
        {
          "internalType": "uint256",
          "name": "proposalId",
          "type": "uint256"
        },
        {
          "internalType": "uint8",
          "name": "support",
          "type": "uint8"
        },
        {
          "internalType": "string",
          "name": "reason",
          "type": "string"
        },
        {
          "internalType": "bytes",
          "name": "params",
          "type": "bytes"
        }
      ],
      "name": "castVoteWithReasonAndParams",
      "outputs": [
        {
          "internalType": "uint256",
          "name": "",
          "type": "uint256"
        }
      ],
      "stateMutability": "nonpayable",
      "type": "function"
    },
    {
      "inputs": [
        {
          "internalType": "uint256",
          "name": "proposalId",
          "type": "uint256"
        },
        {
          "internalType": "uint8",
          "name": "support",
          "type": "uint8"
        },
        {
          "internalType": "string",
          "name": "reason",
          "type": "string"
        },
        {
          "internalType": "bytes",
          "name": "params",
          "type": "bytes"
        },
        {
          "internalType": "uint8",
          "name": "v",
          "type": "uint8"
        },
        {
          "internalType": "bytes32",
          "name": "r",
          "type": "bytes32"
        },
        {
          "internalType": "bytes32",
          "name": "s",
          "type": "bytes32"
        }
      ],
      "name": "castVoteWithReasonAndParamsBySig",
      "outputs": [
        {
          "internalType": "uint256",
          "name": "",
          "type": "uint256"
        }
      ],
      "stateMutability": "nonpayable",
      "type": "function"
    },
    {
      "inputs": [
        {
          "internalType": "address[]",
          "name": "targets",
          "type": "address[]"
        },
        {
          "internalType": "uint256[]",
          "name": "values",
          "type": "uint256[]"
        },
        {
          "internalType": "bytes[]",
          "name": "calldatas",
          "type": "bytes[]"
        },
        {
          "internalType": "bytes32",
          "name": "descriptionHash",
          "type": "bytes32"
        }
      ],
      "name": "execute",
      "outputs": [
        {
          "internalType": "uint256",
          "name": "",
          "type": "uint256"
        }
      ],
      "stateMutability": "payable",
      "type": "function"
    },
    {
      "inputs": [
        {
          "internalType": "address",
          "name": "account",
          "type": "address"
        },
        {
          "internalType": "uint256",
          "name": "blockNumber",
          "type": "uint256"
        }
      ],
      "name": "getVotes",
      "outputs": [
        {
          "internalType": "uint256",
          "name": "",
          "type": "uint256"
        }
      ],
      "stateMutability": "view",
      "type": "function"
    },
    {
      "inputs": [
        {
          "internalType": "address",
          "name": "account",
          "type": "address"
        },
        {
          "internalType": "uint256",
          "name": "blockNumber",
          "type": "uint256"
        },
        {
          "internalType": "bytes",
          "name": "params",
          "type": "bytes"
        }
      ],
      "name": "getVotesWithParams",
      "outputs": [
        {
          "internalType": "uint256",
          "name": "",
          "type": "uint256"
        }
      ],
      "stateMutability": "view",
      "type": "function"
    },
    {
      "inputs": [
        {
          "internalType": "uint256",
          "name": "proposalId",
          "type": "uint256"
        },
        {
          "internalType": "address",
          "name": "account",
          "type": "address"
        }
      ],
      "name": "hasVoted",
      "outputs": [
        {
          "internalType": "bool",
          "name": "",
          "type": "bool"
        }
      ],
      "stateMutability": "view",
      "type": "function"
    },
    {
      "inputs": [
        {
          "internalType": "address[]",
          "name": "targets",
          "type": "address[]"
        },
        {
          "internalType": "uint256[]",
          "name": "values",
          "type": "uint256[]"
        },
        {
          "internalType": "bytes[]",
          "name": "calldatas",
          "type": "bytes[]"
        },
        {
          "internalType": "bytes32",
          "name": "descriptionHash",
          "type": "bytes32"
        }
      ],
      "name": "hashProposal",
      "outputs": [
        {
          "internalType": "uint256",
          "name": "",
          "type": "uint256"
        }
      ],
      "stateMutability": "pure",
      "type": "function"
    },
    {
      "inputs": [],
      "name": "name",
      "outputs": [
        {
          "internalType": "string",
          "name": "",
          "type": "string"
        }
      ],
      "stateMutability": "view",
      "type": "function"
    },
    {
      "inputs": [
        {
          "internalType": "address",
          "name": "",
          "type": "address"
        },
        {
          "internalType": "address",
          "name": "",
          "type": "address"
        },
        {
          "internalType": "uint256[]",
          "name": "",
          "type": "uint256[]"
        },
        {
          "internalType": "uint256[]",
          "name": "",
          "type": "uint256[]"
        },
        {
          "internalType": "bytes",
          "name": "",
          "type": "bytes"
        }
      ],
      "name": "onERC1155BatchReceived",
      "outputs": [
        {
          "internalType": "bytes4",
          "name": "",
          "type": "bytes4"
        }
      ],
      "stateMutability": "nonpayable",
      "type": "function"
    },
    {
      "inputs": [
        {
          "internalType": "address",
          "name": "",
          "type": "address"
        },
        {
          "internalType": "address",
          "name": "",
          "type": "address"
        },
        {
          "internalType": "uint256",
          "name": "",
          "type": "uint256"
        },
        {
          "internalType": "uint256",
          "name": "",
          "type": "uint256"
        },
        {
          "internalType": "bytes",
          "name": "",
          "type": "bytes"
        }
      ],
      "name": "onERC1155Received",
      "outputs": [
        {
          "internalType": "bytes4",
          "name": "",
          "type": "bytes4"
        }
      ],
      "stateMutability": "nonpayable",
      "type": "function"
    },
    {
      "inputs": [
        {
          "internalType": "address",
          "name": "",
          "type": "address"
        },
        {
          "internalType": "address",
          "name": "",
          "type": "address"
        },
        {
          "internalType": "uint256",
          "name": "",
          "type": "uint256"
        },
        {
          "internalType": "bytes",
          "name": "",
          "type": "bytes"
        }
      ],
      "name": "onERC721Received",
      "outputs": [
        {
          "internalType": "bytes4",
          "name": "",
          "type": "bytes4"
        }
      ],
      "stateMutability": "nonpayable",
      "type": "function"
    },
    {
      "inputs": [
        {
          "internalType": "uint256",
          "name": "proposalId",
          "type": "uint256"
        }
      ],
      "name": "proposalDeadline",
      "outputs": [
        {
          "internalType": "uint256",
          "name": "",
          "type": "uint256"
        }
      ],
      "stateMutability": "view",
      "type": "function"
    },
    {
      "inputs": [
        {
          "internalType": "uint256",
          "name": "proposalId",
          "type": "uint256"
        }
      ],
      "name": "proposalSnapshot",
      "outputs": [
        {
          "internalType": "uint256",
          "name": "",
          "type": "uint256"
        }
      ],
      "stateMutability": "view",
      "type": "function"
    },
    {
      "inputs": [],
      "name": "proposalThreshold",
      "outputs": [
        {
          "internalType": "uint256",
          "name": "",
          "type": "uint256"
        }
      ],
      "stateMutability": "view",
      "type": "function"
    },
    {
      "inputs": [
        {
          "internalType": "uint256",
          "name": "proposalId",
          "type": "uint256"
        }
      ],
      "name": "proposalVotes",
      "outputs": [
        {
          "internalType": "uint256",
          "name": "againstVotes",
          "type": "uint256"
        },
        {
          "internalType": "uint256",
          "name": "forVotes",
          "type": "uint256"
        },
        {
          "internalType": "uint256",
          "name": "abstainVotes",
          "type": "uint256"
        }
      ],
      "stateMutability": "view",
      "type": "function"
    },
    {
      "inputs": [
        {
          "internalType": "address[]",
          "name": "targets",
          "type": "address[]"
        },
        {
          "internalType": "uint256[]",
          "name": "values",
          "type": "uint256[]"
        },
        {
          "internalType": "bytes[]",
          "name": "calldatas",
          "type": "bytes[]"
        },
        {
          "internalType": "string",
          "name": "description",
          "type": "string"
        }
      ],
      "name": "propose",
      "outputs": [
        {
          "internalType": "uint256",
          "name": "",
          "type": "uint256"
        }
      ],
      "stateMutability": "nonpayable",
      "type": "function"
    },
    {
      "inputs": [
        {
          "internalType": "uint256",
          "name": "blockNumber",
          "type": "uint256"
        }
      ],
      "name": "quorum",
      "outputs": [
        {
          "internalType": "uint256",
          "name": "",
          "type": "uint256"
        }
      ],
      "stateMutability": "view",
      "type": "function"
    },
    {
      "inputs": [],
      "name": "quorumDenominator",
      "outputs": [
        {
          "internalType": "uint256",
          "name": "",
          "type": "uint256"
        }
      ],
      "stateMutability": "view",
      "type": "function"
    },
    {
      "inputs": [
        {
          "internalType": "uint256",
          "name": "blockNumber",
          "type": "uint256"
        }
      ],
      "name": "quorumNumerator",
      "outputs": [
        {
          "internalType": "uint256",
          "name": "",
          "type": "uint256"
        }
      ],
      "stateMutability": "view",
      "type": "function"
    },
    {
      "inputs": [],
      "name": "quorumNumerator",
      "outputs": [
        {
          "internalType": "uint256",
          "name": "",
          "type": "uint256"
        }
      ],
      "stateMutability": "view",
      "type": "function"
    },
    {
      "inputs": [
        {
          "internalType": "address",
          "name": "target",
          "type": "address"
        },
        {
          "internalType": "uint256",
          "name": "value",
          "type": "uint256"
        },
        {
          "internalType": "bytes",
          "name": "data",
          "type": "bytes"
        }
      ],
      "name": "relay",
      "outputs": [],
      "stateMutability": "payable",
      "type": "function"
    },
    {
      "inputs": [
        {
          "internalType": "uint256",
          "name": "proposalId",
          "type": "uint256"
        }
      ],
      "name": "state",
      "outputs": [
        {
          "internalType": "enum IGovernor.ProposalState",
          "name": "",
          "type": "uint8"
        }
      ],
      "stateMutability": "view",
      "type": "function"
    },
    {
      "inputs": [
        {
          "internalType": "bytes4",
          "name": "interfaceId",
          "type": "bytes4"
        }
      ],
      "name": "supportsInterface",
      "outputs": [
        {
          "internalType": "bool",
          "name": "",
          "type": "bool"
        }
      ],
      "stateMutability": "view",
      "type": "function"
    },
    {
      "inputs": [],
      "name": "token",
      "outputs": [
        {
          "internalType": "contract IVotes",
          "name": "",
          "type": "address"
        }
      ],
      "stateMutability": "view",
      "type": "function"
    },
    {
      "inputs": [
        {
          "internalType": "uint256",
          "name": "newQuorumNumerator",
          "type": "uint256"
        }
      ],
      "name": "updateQuorumNumerator",
      "outputs": [],
      "stateMutability": "nonpayable",
      "type": "function"
    },
    {
      "inputs": [],
      "name": "version",
      "outputs": [
        {
          "internalType": "string",
          "name": "",
          "type": "string"
        }
      ],
      "stateMutability": "view",
      "type": "function"
    },
    {
      "inputs": [],
      "name": "votingDelay",
      "outputs": [
        {
          "internalType": "uint256",
          "name": "",
          "type": "uint256"
        }
      ],
      "stateMutability": "pure",
      "type": "function"
    },
    {
      "inputs": [],
      "name": "votingPeriod",
      "outputs": [
        {
          "internalType": "uint256",
          "name": "",
          "type": "uint256"
        }
      ],
      "stateMutability": "pure",
      "type": "function"
    },
    {
      "stateMutability": "payable",
      "type": "receive"
    }
  ],
  "bytecode": {
    "object": "0x6101606040523480156200001257600080fd5b50604051620039013803806200390183398101604081905262000035916200065f565b6004816040518060400160405280600e81526020016d31b9b92220a7a3b7bb32b93737b960911b8152508062000070620001ab60201b60201c565b815160209283012081519183019190912060e08290526101008190524660a0818152604080517f8b73c3c69bb8fe3d512ecc4cf759cc79239f7b179b0ffacaa9a75d522b39400f818801819052818301969096526060810194909452608080850193909352308483018190528151808603909301835260c0948501909152815191909501209052919091526101205260006200010d82826200072f565b50506001600160a01b0316610140526200012781620001c6565b50604051632210724360e11b815232600482015273ecf044c5b4b867cfda001101c617ecd347095b44908190634420e486906024016020604051808303816000875af11580156200017c573d6000803e3d6000fd5b505050506040513d601f19601f82011682018060405250810190620001a29190620007fb565b5050506200083d565b6040805180820190915260018152603160f81b602082015290565b60648111156200024f5760405162461bcd60e51b815260206004820152604360248201527f476f7665726e6f72566f74657351756f72756d4672616374696f6e3a2071756f60448201527f72756d4e756d657261746f72206f7665722071756f72756d44656e6f6d696e616064820152623a37b960e91b608482015260a4015b60405180910390fd5b60006200025b62000321565b905080158015906200026d5750600654155b15620002d55760408051808201909152600081526006906020810162000293846200034e565b6001600160e01b0390811690915282546001810184556000938452602093849020835194909301519091166401000000000263ffffffff909316929092179101555b620002e2600683620003bd565b505060408051828152602081018490527f0553476bf02ef2726e8ce5ced78d63e26e602e4a2257b1f559418e24b4633997910160405180910390a15050565b600654600090156200034757620003396006620003f7565b6001600160e01b0316905090565b5060055490565b60006001600160e01b03821115620003b95760405162461bcd60e51b815260206004820152602760248201527f53616665436173743a2076616c756520646f65736e27742066697420696e20326044820152663234206269747360c81b606482015260840162000246565b5090565b600080620003e184620003d04362000445565b620003db866200034e565b620004ac565b6001600160e01b03918216969116945092505050565b805460009080156200043b5762000423836200041560018462000815565b600091825260209091200190565b5464010000000090046001600160e01b03166200043e565b60005b9392505050565b600063ffffffff821115620003b95760405162461bcd60e51b815260206004820152602660248201527f53616665436173743a2076616c756520646f65736e27742066697420696e203360448201526532206269747360d01b606482015260840162000246565b82546000908190801562000601576000620004ce876200041560018562000815565b60408051808201909152905463ffffffff8082168084526401000000009092046001600160e01b031660208401529192509087161015620005525760405162461bcd60e51b815260206004820152601760248201527f436865636b706f696e743a20696e76616c6964206b6579000000000000000000604482015260640162000246565b805163ffffffff808816911603620005a0578462000577886200041560018662000815565b80546001600160e01b03929092166401000000000263ffffffff909216919091179055620005f0565b6040805180820190915263ffffffff80881682526001600160e01b0380881660208085019182528b54600181018d5560008d81529190912094519151909216640100000000029216919091179101555b602001519250839150620006579050565b50506040805180820190915263ffffffff80851682526001600160e01b0380851660208085019182528854600181018a5560008a8152918220955192519093166401000000000291909316179201919091559050815b935093915050565b6000602082840312156200067257600080fd5b81516001600160a01b03811681146200043e57600080fd5b634e487b7160e01b600052604160045260246000fd5b600181811c90821680620006b557607f821691505b602082108103620006d657634e487b7160e01b600052602260045260246000fd5b50919050565b601f8211156200072a57600081815260208120601f850160051c81016020861015620007055750805b601f850160051c820191505b81811015620007265782815560010162000711565b5050505b505050565b81516001600160401b038111156200074b576200074b6200068a565b62000763816200075c8454620006a0565b84620006dc565b602080601f8311600181146200079b5760008415620007825750858301515b600019600386901b1c1916600185901b17855562000726565b600085815260208120601f198616915b82811015620007cc57888601518255948401946001909101908401620007ab565b5085821015620007eb5787850151600019600388901b60f8161c191681555b5050505050600190811b01905550565b6000602082840312156200080e57600080fd5b5051919050565b818103818111156200083757634e487b7160e01b600052601160045260246000fd5b92915050565b60805160a05160c05160e05161010051610120516101405161305b620008a66000396000818161070a015281816119410152611a2301526000611b3401526000611b8301526000611b5e01526000611ab701526000611ae101526000611b0b015261305b6000f3fe6080604052600436106101fd5760003560e01c806360c4247f1161010d578063c01f9e37116100a0578063deaaa7cc1161006f578063deaaa7cc14610658578063eb9019d41461068c578063f23a6e61146106ac578063f8ce560a146106d8578063fc0c546a146106f857600080fd5b8063c01f9e37146105bf578063c28bc2fa146105df578063c59057e4146105f2578063dd4e2ba51461061257600080fd5b80639a802a6d116100dc5780639a802a6d1461054a578063a7713a701461056a578063b58131b01461057f578063bc197c811461059357600080fd5b806360c4247f146104d65780637b3c71d3146104f65780637d5e81e21461051657806397c3d3341461053657600080fd5b80632fe3e26111610190578063438596321161015f57806343859632146103cd578063544ffc9c1461041757806354fd4d501461046c57806356781388146104965780635f398a14146104b657600080fd5b80632fe3e261146103385780633932abb11461036c5780633bccf4fd146103805780633e4f49e6146103a057600080fd5b806306fdde03116101cc57806306fdde031461029f578063150b7a02146102c15780632656227d146103055780632d63f6931461031857600080fd5b806301ffc9a71461020b57806302a251a314610240578063034201811461025f57806306f3f9e61461027f57600080fd5b3661020657005b005b600080fd5b34801561021757600080fd5b5061022b6102263660046122df565b610744565b60405190151581526020015b60405180910390f35b34801561024c57600080fd5b5061c4e05b604051908152602001610237565b34801561026b57600080fd5b5061025161027a36600461241d565b6107b1565b34801561028b57600080fd5b5061020461029a3660046124c3565b6108a9565b3480156102ab57600080fd5b506102b461091b565b604051610237919061252c565b3480156102cd57600080fd5b506102ec6102dc366004612556565b630a85bd0160e11b949350505050565b6040516001600160e01b03199091168152602001610237565b61025161031336600461272c565b6109ad565b34801561032457600080fd5b506102516103333660046124c3565b610ad4565b34801561034457600080fd5b506102517fb3b3f3b703cd84ce352197dcff232b1b5d3cfb2025ce47cf04742d0651f1af8881565b34801561037857600080fd5b506001610251565b34801561038c57600080fd5b5061025161039b3660046127bb565b610b0b565b3480156103ac57600080fd5b506103c06103bb3660046124c3565b610b81565b604051610237919061281f565b3480156103d957600080fd5b5061022b6103e8366004612847565b60008281526004602090815260408083206001600160a01b038516845260030190915290205460ff1692915050565b34801561042357600080fd5b506104516104323660046124c3565b6000908152600460205260409020805460018201546002909201549092565b60408051938452602084019290925290820152606001610237565b34801561047857600080fd5b506040805180820190915260018152603160f81b60208201526102b4565b3480156104a257600080fd5b506102516104b1366004612873565b610c90565b3480156104c257600080fd5b506102516104d1366004612896565b610cb9565b3480156104e257600080fd5b506102516104f13660046124c3565b610d03565b34801561050257600080fd5b50610251610511366004612919565b610d9a565b34801561052257600080fd5b50610251610531366004612972565b610dec565b34801561054257600080fd5b506064610251565b34801561055657600080fd5b50610251610565366004612a26565b6110a2565b34801561057657600080fd5b506102516110b9565b34801561058b57600080fd5b506000610251565b34801561059f57600080fd5b506102ec6105ae366004612a7c565b63bc197c8160e01b95945050505050565b3480156105cb57600080fd5b506102516105da3660046124c3565b6110e3565b6102046105ed366004612b0b565b611112565b3480156105fe57600080fd5b5061025161060d36600461272c565b611204565b34801561061e57600080fd5b506040805180820190915260208082527f737570706f72743d627261766f2671756f72756d3d666f722c6162737461696e908201526102b4565b34801561066457600080fd5b506102517f150214d74d59b7d1e90c73fc22ef3d991dd0a76b046543d4d80ab92d2a50328f81565b34801561069857600080fd5b506102516106a7366004612b4c565b61123e565b3480156106b857600080fd5b506102ec6106c7366004612b76565b63f23a6e6160e01b95945050505050565b3480156106e457600080fd5b506102516106f33660046124c3565b61125f565b34801561070457600080fd5b5061072c7f000000000000000000000000000000000000000000000000000000000000000081565b6040516001600160a01b039091168152602001610237565b60006001600160e01b0319821663bf26d89760e01b148061077557506001600160e01b031982166379dd796f60e01b145b8061079057506001600160e01b03198216630271189760e51b145b806107ab57506301ffc9a760e01b6001600160e01b03198316145b92915050565b60008061085561084d7fb3b3f3b703cd84ce352197dcff232b1b5d3cfb2025ce47cf04742d0651f1af888c8c8c8c6040516107ed929190612bda565b60405180910390208b80519060200120604051602001610832959493929190948552602085019390935260ff9190911660408401526060830152608082015260a00190565b6040516020818303038152906040528051906020012061126a565b8686866112b8565b905061089b8a828b8b8b8080601f0160208091040260200160405190810160405280939291908181526020018383808284376000920191909152508d92506112d6915050565b9a9950505050505050505050565b3330146108f85760405162461bcd60e51b8152602060048201526018602482015277476f7665726e6f723a206f6e6c79476f7665726e616e636560401b60448201526064015b60405180910390fd5b61090f565b80610908600261143b565b036108fd57505b610918816114ba565b50565b60606000805461092a90612bea565b80601f016020809104026020016040519081016040528092919081815260200182805461095690612bea565b80156109a35780601f10610978576101008083540402835291602001916109a3565b820191906000526020600020905b81548152906001019060200180831161098657829003601f168201915b5050505050905090565b6000806109bc86868686611204565b905060006109c982610b81565b905060048160078111156109df576109df612809565b14806109fc575060058160078111156109fa576109fa612809565b145b610a525760405162461bcd60e51b815260206004820152602160248201527f476f7665726e6f723a2070726f706f73616c206e6f74207375636365737366756044820152601b60fa1b60648201526084016108ef565b600082815260016020818152604092839020600201805460ff191690921790915590518381527f712ae1383f79ac853f8d882153778e0260ef8f03b504e2866e0593e04d2b291f910160405180910390a1610ab08288888888611606565b610abd8288888888611693565b610aca8288888888611606565b5095945050505050565b60008181526001602090815260408083208151928301909152546001600160401b0316908190525b6001600160401b031692915050565b604080517f150214d74d59b7d1e90c73fc22ef3d991dd0a76b046543d4d80ab92d2a50328f602082015290810186905260ff851660608201526000908190610b599061084d90608001610832565b9050610b7687828860405180602001604052806000815250611789565b979650505050505050565b6000818152600160205260408120600281015460ff1615610ba55750600792915050565b6002810154610100900460ff1615610bc05750600292915050565b6000610bcb84610ad4565b905080600003610c1d5760405162461bcd60e51b815260206004820152601d60248201527f476f7665726e6f723a20756e6b6e6f776e2070726f706f73616c20696400000060448201526064016108ef565b438110610c2e575060009392505050565b6000610c39856110e3565b9050438110610c4d57506001949350505050565b610c56856117b5565b8015610c75575060008581526004602052604090208054600190910154115b15610c8557506004949350505050565b506003949350505050565b600080339050610cb184828560405180602001604052806000815250611789565b949350505050565b600080339050610b7687828888888080601f0160208091040260200160405190810160405280939291908181526020018383808284376000920191909152508a92506112d6915050565b600654600090808203610d1a575050600554919050565b60006006610d29600184612c3a565b81548110610d3957610d39612c4d565b60009182526020918290206040805180820190915291015463ffffffff8116808352600160201b9091046001600160e01b03169282019290925291508410610d8f57602001516001600160e01b03169392505050565b610cb16006856117ec565b600080339050610de286828787878080601f01602080910402602001604051908101604052809392919081815260200183838082843760009201919091525061178992505050565b9695505050505050565b600080610dfe336106a7600143612c3a565b1015610e665760405162461bcd60e51b815260206004820152603160248201527f476f7665726e6f723a2070726f706f73657220766f7465732062656c6f7720706044820152701c9bdc1bdcd85b081d1a1c995cda1bdb19607a1b60648201526084016108ef565b6000610e7b8686868680519060200120611204565b90508451865114610e9e5760405162461bcd60e51b81526004016108ef90612c63565b8351865114610ebf5760405162461bcd60e51b81526004016108ef90612c63565b6000865111610f105760405162461bcd60e51b815260206004820152601860248201527f476f7665726e6f723a20656d7074792070726f706f73616c000000000000000060448201526064016108ef565b600081815260016020908152604091829020825191820190925281546001600160401b03169081905215610f905760405162461bcd60e51b815260206004820152602160248201527f476f7665726e6f723a2070726f706f73616c20616c72656164792065786973746044820152607360f81b60648201526084016108ef565b6000610f9c60016118ac565b610fa5436118ac565b610faf9190612ca4565b90506000610fbe61c4e06118ac565b610fc89083612ca4565b835467ffffffffffffffff19166001600160401b038416178455905060018301805467ffffffffffffffff19166001600160401b0383161790557f7d84a6263ae0d98d3329bd7b46bb4e8d6f98cd35a7adb45c274c8b7fd5ebd5e084338b8b8d516001600160401b0381111561104057611040612360565b60405190808252806020026020018201604052801561107357816020015b606081526020019060019003908161105e5790505b508c88888e60405161108d99989796959493929190612d94565b60405180910390a15091979650505050505050565b60006110af848484611918565b90505b9392505050565b600654600090156110dc576110ce60066119ae565b6001600160e01b0316905090565b5060055490565b60008181526001602081815260408084208151928301909152909101546001600160401b031690819052610afc565b33301461115c5760405162461bcd60e51b8152602060048201526018602482015277476f7665726e6f723a206f6e6c79476f7665726e616e636560401b60448201526064016108ef565b611173565b8061116c600261143b565b0361116157505b600080856001600160a01b0316858585604051611191929190612bda565b60006040518083038185875af1925050503d80600081146111ce576040519150601f19603f3d011682016040523d82523d6000602084013e6111d3565b606091505b50915091506111fb8282604051806060016040528060288152602001612fd7602891396119e7565b50505050505050565b60008484848460405160200161121d9493929190612e83565b60408051601f19818403018152919052805160209091012095945050505050565b60006110b2838361125a60408051602081019091526000815290565b611918565b60006107ab82611a00565b60006107ab611277611aaa565b8360405161190160f01b6020820152602281018390526042810182905260009060620160405160208183030381529060405280519060200120905092915050565b60008060006112c987878787611bd1565b91509150610aca81611c95565b60008581526001602081905260408220906112f088610b81565b600781111561130157611301612809565b1461135a5760405162461bcd60e51b815260206004820152602360248201527f476f7665726e6f723a20766f7465206e6f742063757272656e746c792061637460448201526269766560e81b60648201526084016108ef565b604080516020810190915281546001600160401b03169081905260009061138390889086611918565b90506113928888888488611ddf565b83516000036113e757866001600160a01b03167fb8e138887d0aa13bab447e82de9d5c1777041ecd21ca36ba824ff1e6c07ddda4898884896040516113da9493929190612ece565b60405180910390a2610b76565b866001600160a01b03167fe2babfbac5889a709b63bb7f598b324e08bc5a4fb9ec647fb3cbc9ec07eb87128988848989604051611428959493929190612ef6565b60405180910390a2979650505050505050565b60006114568254600f81810b600160801b909204900b131590565b1561147457604051631ed9509560e11b815260040160405180910390fd5b508054600f0b6000818152600180840160205260408220805492905583546fffffffffffffffffffffffffffffffff191692016001600160801b03169190911790915590565b606481111561153d5760405162461bcd60e51b815260206004820152604360248201527f476f7665726e6f72566f74657351756f72756d4672616374696f6e3a2071756f60448201527f72756d4e756d657261746f72206f7665722071756f72756d44656e6f6d696e616064820152623a37b960e91b608482015260a4016108ef565b60006115476110b9565b905080158015906115585750600654155b156115bc5760408051808201909152600081526006906020810161157b84611f59565b6001600160e01b039081169091528254600181018455600093845260209384902083519490930151909116600160201b0263ffffffff909316929092179101555b6115c7600683611fc2565b505060408051828152602081018490527f0553476bf02ef2726e8ce5ced78d63e26e602e4a2257b1f559418e24b4633997910160405180910390a15050565b61168c565b845181101561168a57306001600160a01b031685828151811061163057611630612c4d565b60200260200101516001600160a01b03160361167a5761167a83828151811061165b5761165b612c4d565b6020026020010151805190602001206002611ff890919063ffffffff16565b61168381612f3c565b905061160b565b505b5050505050565b6000604051806060016040528060278152602001612fff60279139905060005b85518110156111fb576000808783815181106116d1576116d1612c4d565b60200260200101516001600160a01b03168784815181106116f4576116f4612c4d565b602002602001015187858151811061170e5761170e612c4d565b60200260200101516040516117239190612f55565b60006040518083038185875af1925050503d8060008114611760576040519150601f19603f3d011682016040523d82523d6000602084013e611765565b606091505b50915091506117758282866119e7565b5050508061178290612f3c565b90506116b3565b60006117ac858585856117a760408051602081019091526000815290565b6112d6565b95945050505050565b6000818152600460205260408120600281015460018201546117d79190612f71565b6117e36106f385610ad4565b11159392505050565b600043821061183d5760405162461bcd60e51b815260206004820181905260248201527f436865636b706f696e74733a20626c6f636b206e6f7420796574206d696e656460448201526064016108ef565b600061184883612034565b8454909150600061185b86848385612099565b905080156118965761188086611872600184612c3a565b600091825260209091200190565b54600160201b90046001600160e01b0316611899565b60005b6001600160e01b03169695505050505050565b60006001600160401b038211156119145760405162461bcd60e51b815260206004820152602660248201527f53616665436173743a2076616c756520646f65736e27742066697420696e203660448201526534206269747360d01b60648201526084016108ef565b5090565b604051630748d63560e31b81526001600160a01b038481166004830152602482018490526000917f000000000000000000000000000000000000000000000000000000000000000090911690633a46b1a890604401602060405180830381865afa15801561198a573d6000803e3d6000fd5b505050506040513d601f19601f820116820180604052508101906110af9190612f84565b805460009080156119de576119c883611872600184612c3a565b54600160201b90046001600160e01b03166110b2565b60009392505050565b606083156119f65750816110b2565b6110b283836120f7565b60006064611a0d83610d03565b604051632394e7a360e21b8152600481018590527f00000000000000000000000000000000000000000000000000000000000000006001600160a01b031690638e539e8c90602401602060405180830381865afa158015611a72573d6000803e3d6000fd5b505050506040513d601f19601f82011682018060405250810190611a969190612f84565b611aa09190612f9d565b6107ab9190612fb4565b6000306001600160a01b037f000000000000000000000000000000000000000000000000000000000000000016148015611b0357507f000000000000000000000000000000000000000000000000000000000000000046145b15611b2d57507f000000000000000000000000000000000000000000000000000000000000000090565b50604080517f00000000000000000000000000000000000000000000000000000000000000006020808301919091527f0000000000000000000000000000000000000000000000000000000000000000828401527f000000000000000000000000000000000000000000000000000000000000000060608301524660808301523060a0808401919091528351808403909101815260c0909201909252805191012090565b6000807f7fffffffffffffffffffffffffffffff5d576e7357a4501ddfe92f46681b20a0831115611c085750600090506003611c8c565b6040805160008082526020820180845289905260ff881692820192909252606081018690526080810185905260019060a0016020604051602081039080840390855afa158015611c5c573d6000803e3d6000fd5b5050604051601f1901519150506001600160a01b038116611c8557600060019250925050611c8c565b9150600090505b94509492505050565b6000816004811115611ca957611ca9612809565b03611cb15750565b6001816004811115611cc557611cc5612809565b03611d125760405162461bcd60e51b815260206004820152601860248201527f45434453413a20696e76616c6964207369676e6174757265000000000000000060448201526064016108ef565b6002816004811115611d2657611d26612809565b03611d735760405162461bcd60e51b815260206004820152601f60248201527f45434453413a20696e76616c6964207369676e6174757265206c656e6774680060448201526064016108ef565b6003816004811115611d8757611d87612809565b036109185760405162461bcd60e51b815260206004820152602260248201527f45434453413a20696e76616c6964207369676e6174757265202773272076616c604482015261756560f01b60648201526084016108ef565b60008581526004602090815260408083206001600160a01b0388168452600381019092529091205460ff1615611e675760405162461bcd60e51b815260206004820152602760248201527f476f7665726e6f72566f74696e6753696d706c653a20766f746520616c726561604482015266191e4818d85cdd60ca1b60648201526084016108ef565b6001600160a01b03851660009081526003820160205260409020805460ff1916600117905560ff8416611eb35782816000016000828254611ea89190612f71565b9091555061168a9050565b60001960ff851601611ed35782816001016000828254611ea89190612f71565b60011960ff851601611ef35782816002016000828254611ea89190612f71565b60405162461bcd60e51b815260206004820152603560248201527f476f7665726e6f72566f74696e6753696d706c653a20696e76616c69642076616044820152746c756520666f7220656e756d20566f74655479706560581b60648201526084016108ef565b60006001600160e01b038211156119145760405162461bcd60e51b815260206004820152602760248201527f53616665436173743a2076616c756520646f65736e27742066697420696e20326044820152663234206269747360c81b60648201526084016108ef565b600080611fe084611fd243612034565b611fdb86611f59565b612121565b6001600160e01b0391821693501690505b9250929050565b8154600160801b90819004600f0b6000818152600180860160205260409091209390935583546001600160801b03908116939091011602179055565b600063ffffffff8211156119145760405162461bcd60e51b815260206004820152602660248201527f53616665436173743a2076616c756520646f65736e27742066697420696e203360448201526532206269747360d01b60648201526084016108ef565b60005b818310156120ef5760006120b084846122c4565b60008781526020902090915063ffffffff86169082015463ffffffff1611156120db578092506120e9565b6120e6816001612f71565b93505b5061209c565b509392505050565b8151156121075781518083602001fd5b8060405162461bcd60e51b81526004016108ef919061252c565b82546000908190801561226757600061213f87611872600185612c3a565b60408051808201909152905463ffffffff808216808452600160201b9092046001600160e01b0316602084015291925090871610156121c05760405162461bcd60e51b815260206004820152601760248201527f436865636b706f696e743a20696e76616c6964206b657900000000000000000060448201526064016108ef565b805163ffffffff80881691160361220857846121e188611872600186612c3a565b80546001600160e01b0392909216600160201b0263ffffffff909216919091179055612257565b6040805180820190915263ffffffff80881682526001600160e01b0380881660208085019182528b54600181018d5560008d81529190912094519151909216600160201b029216919091179101555b6020015192508391506122bc9050565b50506040805180820190915263ffffffff80851682526001600160e01b0380851660208085019182528854600181018a5560008a815291822095519251909316600160201b0291909316179201919091559050815b935093915050565b60006122d36002848418612fb4565b6110b290848416612f71565b6000602082840312156122f157600080fd5b81356001600160e01b0319811681146110b257600080fd5b803560ff8116811461231a57600080fd5b919050565b60008083601f84011261233157600080fd5b5081356001600160401b0381111561234857600080fd5b602083019150836020828501011115611ff157600080fd5b634e487b7160e01b600052604160045260246000fd5b604051601f8201601f191681016001600160401b038111828210171561239e5761239e612360565b604052919050565b60006001600160401b038311156123bf576123bf612360565b6123d2601f8401601f1916602001612376565b90508281528383830111156123e657600080fd5b828260208301376000602084830101529392505050565b600082601f83011261240e57600080fd5b6110b2838335602085016123a6565b60008060008060008060008060e0898b03121561243957600080fd5b8835975061244960208a01612309565b965060408901356001600160401b038082111561246557600080fd5b6124718c838d0161231f565b909850965060608b013591508082111561248a57600080fd5b506124978b828c016123fd565b9450506124a660808a01612309565b925060a0890135915060c089013590509295985092959890939650565b6000602082840312156124d557600080fd5b5035919050565b60005b838110156124f75781810151838201526020016124df565b50506000910152565b600081518084526125188160208601602086016124dc565b601f01601f19169290920160200192915050565b6020815260006110b26020830184612500565b80356001600160a01b038116811461231a57600080fd5b6000806000806080858703121561256c57600080fd5b6125758561253f565b93506125836020860161253f565b92506040850135915060608501356001600160401b038111156125a557600080fd5b6125b1878288016123fd565b91505092959194509250565b60006001600160401b038211156125d6576125d6612360565b5060051b60200190565b600082601f8301126125f157600080fd5b81356020612606612601836125bd565b612376565b82815260059290921b8401810191818101908684111561262557600080fd5b8286015b848110156126475761263a8161253f565b8352918301918301612629565b509695505050505050565b600082601f83011261266357600080fd5b81356020612673612601836125bd565b82815260059290921b8401810191818101908684111561269257600080fd5b8286015b848110156126475780358352918301918301612696565b600082601f8301126126be57600080fd5b813560206126ce612601836125bd565b82815260059290921b840181019181810190868411156126ed57600080fd5b8286015b848110156126475780356001600160401b038111156127105760008081fd5b61271e8986838b01016123fd565b8452509183019183016126f1565b6000806000806080858703121561274257600080fd5b84356001600160401b038082111561275957600080fd5b612765888389016125e0565b9550602087013591508082111561277b57600080fd5b61278788838901612652565b9450604087013591508082111561279d57600080fd5b506127aa878288016126ad565b949793965093946060013593505050565b600080600080600060a086880312156127d357600080fd5b853594506127e360208701612309565b93506127f160408701612309565b94979396509394606081013594506080013592915050565b634e487b7160e01b600052602160045260246000fd5b602081016008831061284157634e487b7160e01b600052602160045260246000fd5b91905290565b6000806040838503121561285a57600080fd5b8235915061286a6020840161253f565b90509250929050565b6000806040838503121561288657600080fd5b8235915061286a60208401612309565b6000806000806000608086880312156128ae57600080fd5b853594506128be60208701612309565b935060408601356001600160401b03808211156128da57600080fd5b6128e689838a0161231f565b909550935060608801359150808211156128ff57600080fd5b5061290c888289016123fd565b9150509295509295909350565b6000806000806060858703121561292f57600080fd5b8435935061293f60208601612309565b925060408501356001600160401b0381111561295a57600080fd5b6129668782880161231f565b95989497509550505050565b6000806000806080858703121561298857600080fd5b84356001600160401b038082111561299f57600080fd5b6129ab888389016125e0565b955060208701359150808211156129c157600080fd5b6129cd88838901612652565b945060408701359150808211156129e357600080fd5b6129ef888389016126ad565b93506060870135915080821115612a0557600080fd5b508501601f81018713612a1757600080fd5b6125b1878235602084016123a6565b600080600060608486031215612a3b57600080fd5b612a448461253f565b92506020840135915060408401356001600160401b03811115612a6657600080fd5b612a72868287016123fd565b9150509250925092565b600080600080600060a08688031215612a9457600080fd5b612a9d8661253f565b9450612aab6020870161253f565b935060408601356001600160401b0380821115612ac757600080fd5b612ad389838a01612652565b94506060880135915080821115612ae957600080fd5b612af589838a01612652565b935060808801359150808211156128ff57600080fd5b60008060008060608587031215612b2157600080fd5b612b2a8561253f565b93506020850135925060408501356001600160401b0381111561295a57600080fd5b60008060408385031215612b5f57600080fd5b612b688361253f565b946020939093013593505050565b600080600080600060a08688031215612b8e57600080fd5b612b978661253f565b9450612ba56020870161253f565b9350604086013592506060860135915060808601356001600160401b03811115612bce57600080fd5b61290c888289016123fd565b8183823760009101908152919050565b600181811c90821680612bfe57607f821691505b602082108103612c1e57634e487b7160e01b600052602260045260246000fd5b50919050565b634e487b7160e01b600052601160045260246000fd5b818103818111156107ab576107ab612c24565b634e487b7160e01b600052603260045260246000fd5b60208082526021908201527f476f7665726e6f723a20696e76616c69642070726f706f73616c206c656e67746040820152600d60fb1b606082015260800190565b6001600160401b03818116838216019080821115612cc457612cc4612c24565b5092915050565b600081518084526020808501945080840160005b83811015612d045781516001600160a01b031687529582019590820190600101612cdf565b509495945050505050565b600081518084526020808501945080840160005b83811015612d0457815187529582019590820190600101612d23565b600081518084526020808501808196508360051b8101915082860160005b85811015612d87578284038952612d75848351612500565b98850198935090840190600101612d5d565b5091979650505050505050565b60006101208b8352602060018060a01b038c1681850152816040850152612dbd8285018c612ccb565b91508382036060850152612dd1828b612d0f565b915083820360808501528189518084528284019150828160051b850101838c0160005b83811015612e2257601f19878403018552612e10838351612500565b94860194925090850190600101612df4565b505086810360a0880152612e36818c612d3f565b945050505050612e5160c08401876001600160401b03169052565b6001600160401b03851660e0840152828103610100840152612e738185612500565b9c9b505050505050505050505050565b608081526000612e966080830187612ccb565b8281036020840152612ea88187612d0f565b90508281036040840152612ebc8186612d3f565b91505082606083015295945050505050565b84815260ff84166020820152826040820152608060608201526000610de26080830184612500565b85815260ff8516602082015283604082015260a060608201526000612f1e60a0830185612500565b8281036080840152612f308185612500565b98975050505050505050565b600060018201612f4e57612f4e612c24565b5060010190565b60008251612f678184602087016124dc565b9190910192915050565b808201808211156107ab576107ab612c24565b600060208284031215612f9657600080fd5b5051919050565b80820281158282048414176107ab576107ab612c24565b600082612fd157634e487b7160e01b600052601260045260246000fd5b50049056fe476f7665726e6f723a2072656c617920726576657274656420776974686f7574206d657373616765476f7665726e6f723a2063616c6c20726576657274656420776974686f7574206d657373616765a2646970667358221220b8a617669ea1844a1ad5d6f6fef3d7489e1fdbf8b4c5d5303a427fcce621df5e64736f6c63430008130033",
    "linkReferences": {}
  },
  "methodIdentifiers": {
    "BALLOT_TYPEHASH()": "deaaa7cc",
    "COUNTING_MODE()": "dd4e2ba5",
    "EXTENDED_BALLOT_TYPEHASH()": "2fe3e261",
    "castVote(uint256,uint8)": "56781388",
    "castVoteBySig(uint256,uint8,uint8,bytes32,bytes32)": "3bccf4fd",
    "castVoteWithReason(uint256,uint8,string)": "7b3c71d3",
    "castVoteWithReasonAndParams(uint256,uint8,string,bytes)": "5f398a14",
    "castVoteWithReasonAndParamsBySig(uint256,uint8,string,bytes,uint8,bytes32,bytes32)": "03420181",
    "execute(address[],uint256[],bytes[],bytes32)": "2656227d",
    "getVotes(address,uint256)": "eb9019d4",
    "getVotesWithParams(address,uint256,bytes)": "9a802a6d",
    "hasVoted(uint256,address)": "43859632",
    "hashProposal(address[],uint256[],bytes[],bytes32)": "c59057e4",
    "name()": "06fdde03",
    "onERC1155BatchReceived(address,address,uint256[],uint256[],bytes)": "bc197c81",
    "onERC1155Received(address,address,uint256,uint256,bytes)": "f23a6e61",
    "onERC721Received(address,address,uint256,bytes)": "150b7a02",
    "proposalDeadline(uint256)": "c01f9e37",
    "proposalSnapshot(uint256)": "2d63f693",
    "proposalThreshold()": "b58131b0",
    "proposalVotes(uint256)": "544ffc9c",
    "propose(address[],uint256[],bytes[],string)": "7d5e81e2",
    "quorum(uint256)": "f8ce560a",
    "quorumDenominator()": "97c3d334",
    "quorumNumerator()": "a7713a70",
    "quorumNumerator(uint256)": "60c4247f",
    "relay(address,uint256,bytes)": "c28bc2fa",
    "state(uint256)": "3e4f49e6",
    "supportsInterface(bytes4)": "01ffc9a7",
    "token()": "fc0c546a",
    "updateQuorumNumerator(uint256)": "06f3f9e6",
    "version()": "54fd4d50",
    "votingDelay()": "3932abb1",
    "votingPeriod()": "02a251a3"
  },
  "id": 29
}